:020000040800F2
:10000000400D002041030008A50B00085D0B00080F
:10001000A10B000859080008871C00080000000018
:10002000000000000000000000000000890200083D
:100030005D08000800000000DD0200084912000809
:100040005B0300085B0300085B0300085B03000818
:100050005B0300085B0300085B0300085B03000808
:100060005B0300085B0300085B0300085B030008F8
:100070005B0300085B0300085B0300085B030008E8
:100080005B0300085B0300085B0300085B030008D8
:100090005B0300085B0300085B0300085B030008C8
:1000A0005B0300085B0300085B0300085B030008B8
:1000B0005B0300085B030008C11200085B03000833
:1000C0005B0300085B0300085B0300085B03000898
:1000D0005B0300080D1800089D180008E5180008CB
:1000E0005B0300085B0300085B0300085B03000878
:1000F0005B0300085B0300085B0300085B03000868
:100100005B0300085B030008F91200085B030008AA
:100110005B0300085B0300085B0300085B03000847
:100120005B0300085B0300085B0300085B03000837
:100130005B0300085B0300085B0300085B03000827
:100140005B0300085B0300085B0300085B03000817
:100150005B0300085B0300085B0300085B03000807
:100160005B0300085B0300085B0300085B030008F7
:100170005B0300085B0300085B0300085B030008E7
:100180005B0300085B03000800F002F800F06DF864
:100190000AA090E8000C82448344AAF10107DA45E2
:1001A00001D100F062F8AFF2090EBAE80F0013F0C7
:1001B000010F18BFFB1A43F0010318471881000014
:1001C000388100000A444FF0000C10F8013B13F096
:1001D000070408BF10F8014B1D1108BF10F8015BA0
:1001E000641E05D010F8016B641E01F8016BF9D193
:1001F00013F0080F1EBF10F8014BAD1C0C1B09D1EA
:100200006D1E58BF01F801CBFAD505E014F8016B5B
:1002100001F8016B6D1EF9D59142D6D370470000ED
:100220000023002400250026103A28BF78C1FBD8FF
:10023000520728BF30C148BF0B607047642900F0E7
:10024000FD80752900F0FA80782900F03381632958
:1002500000F09282732900F09782002070471FB54A
:1002600007F03BFE1FBD10B510BD00F0C7FA1146E8
:10027000FFF7F5FF04F056FE00F0E5FA03B4FFF7D0
:10028000F2FF03BC03F0E9FA2A4B19680868B0E8EA
:10029000F04F80F30988BFF36F8F4FF0000080F3B9
:1002A000118870470000000006480068006880F36D
:1002B000088862B661B6BFF34F8FBFF36F8F00DF60
:1002C00000BF00BF08ED00E0DFF80C00016841F45A
:1002D00070010160704700BF88ED00E0EFF3098016
:1002E000BFF36F8F134B1A681EF0100F08BF20ED7D
:1002F000108A20E9F04F106008B44FF0500080F3EE
:100300001188BFF34F8FBFF36F8F06F013FE4FF0CE
:10031000000080F3118808BC19680868B0E8F04F45
:100320001EF0100F08BFB0EC108A80F30988BFF3ED
:100330006F8F7047A8010020EFF305807047000021
:100340000948804709480047FEE7FEE7FEE7FEE769
:10035000FEE7FEE7FEE7FEE7FEE7FEE704480549A5
:10036000054A064B70470000591200088901000831
:1003700040070020400D00204009002040090020D7
:10038000704700000FB4044910B503AA029800F0AA
:10039000FFF910BC5DF814FB2C00002070B504467A
:1003A00085690068C10601D5302600E02026C00717
:1003B00007D070BDD4E9012130469047206A401C27
:1003C00020626D1EF6D570BD70B504468569007853
:1003D000C00707D170BDD4E9012120209047206AD1
:1003E000401C20626D1EF6D570BD70B50C460546EA
:1003F000012A05D02878800600D5EA69002302E0AA
:10040000012305E05B1C934202D2E05C0028F9D195
:10041000A869E618C01AA861286A18442862284604
:10042000FFF7BCFF04E0D5E9012114F8010B904768
:10043000B442F8D32846FFF7C7FF70BD2DE9F0415D
:100440000646002410687529314616A510D0AFF372
:100450000080002802DA404213A507E031688A07CD
:1004600001D512A502E0490704D511A5012401E038
:10047000AFF3008000210A2206F1240709E0B0FB57
:10048000F2FCB0FBF2F302FB1C003030785418464B
:10049000491C0028F3D123462A463046BDE8F041E6
:1004A00000F007B9000000002D0000002B00000044
:1004B0002000000070B504460D4621461068AFF3D9
:1004C00000802188090502D50F4A7A4402E00E4ACD
:1004D0007A440E32002104F1240305E000F00F06F7
:1004E0000009965D5E54491C0028F7D1207800234E
:1004F000000704D5702D02D009B102231132204625
:10050000BDE8704000F0D5B89F7B00002DE9F05F9A
:10051000894604464FF0000ADFF874B1FB44C0F886
:1005200020A02046E1688847002874D0252806D0FE
:10053000D4E901219047206A401C2062F1E700269F
:100540005F462046E16888472028054607DB312DB5
:1005500005D2781910F8200C08B10643F1E7B0076E
:1005600001D526F00406C4F81CA00027C4F818A082
:100570002A2D09D0284603F069F938B304EB87081F
:10058000303DC8F8185019E059F8041B204604EB18
:1005900087029161E1688847012F054618D1E0691B
:1005A000002820DA26F020061DE0D8F8180000EB1D
:1005B000800005EB40003038C8F818002046E1689C
:1005C0008847054603F042F90028EED1012F0AD0F2
:1005D0002E2D08D12046E16888477F1C0546022F52
:1005E00046F02006C4DBA069002803DA404246F04A
:1005F0000106A061F00701D026F010066C2D0BD08B
:10060000682D09D04C2D39D06A2D35D0742D35D0B8
:100610007A2D33D016E038E0E1682F46204688472F
:10062000B842054609D16C2F26D04FF48060E168AE
:10063000064320468847054604E06C2F1AD04FF445
:10064000807006430DB3A5F14100192802D820356A
:1006500046F400664A462946204626604E46FFF785
:10066000EDFD80B101280BD0F61D26F0070000F14A
:10067000080956E74020E4E78020D8E70020D6E7C5
:1006800006F104094DE7284652E7206ABDE8F09FCD
:10069000757B0000704770477047704710B500F0D9
:1006A00089F8006810BD10B5044600F083F80460B6
:1006B00010BD2DE9F0470D4699469246044600F1DB
:1006C00024080168880604D5E06921F01001216042
:1006D00000E00120A84201DD471B00E00027A169DE
:1006E0007A1902EB0900081AA0612078C00602D42A
:1006F0002046FFF753FE002608E0D4E901211AF84E
:1007000006009047206A401C761C20624E45F4DBB0
:100710002078C0060AD52046FFF740FE06E0D4E95F
:10072000012130209047206A401C2062381EA7F12A
:100730000107F4DC07E0D4E9012118F8050090472F
:10074000206A401C2062281EA5F10105F3DC20462A
:10075000FFF73AFE2078000602D50220BDE8F087B8
:100760000120FBE710B5436913B1AFF3008001E04E
:10077000FFF73BFE012010BD127800F124010A7042
:1007800000224A700122EDE711684FF0FF32E9E7DD
:10079000074B70B50D467B4400F015F8044628461B
:1007A00000F024F810B14FF0FF3070BD204670BD4E
:1007B0003342000000487047E006002001694A1CEF
:1007C00002610878704700B58FB0CDE90131002192
:1007D000059105497944CDE9031011466846FFF7B4
:1007E00095FE0FB000BD0000E5FFFFFF007B00F0AD
:1007F0008000704700487047E00600207546FFF70C
:10080000F9FFAE4605006946534620F007008546CD
:1008100018B020B5FFF7A2FDBDE820404FF000065C
:100820004FF000074FF000084FF0000B21F00701D8
:10083000AC46ACE8C009ACE8C009ACE8C009ACE81B
:10084000C0098D46704710B50446AFF300802046BE
:10085000BDE81040FFF712BD00BFFEE77047F0B5DE
:100860000A4600210023002400BF3DE0012505FACF
:1008700001F3156805EA03049C4234D105684F0072
:100880000326BE40B543056015794E00B5400668A5
:10089000354305601579012D02D01579022D16D149
:1008A00085684F000326BE40B543856055794E00EC
:1008B000B540866835438560456801268E40B5435E
:1008C0004560456896798E40B6B235434560C56847
:1008D0004F000326BE40B543C560D5794E00B540F4
:1008E000C6683543C560491C1029BFD3F0BDF0B5BB
:1008F000002300244D07ED0E02FA05F3CE1000F19F
:10090000200555F826504E07F70E0F26BE40B5437A
:10091000CF1000F1200646F82750CE1000F1200538
:1009200055F8265045EA0304CE1000F1200545F89D
:100930002640F0BD018370474FF6FF710160002132
:10094000017141718171C1717047000010B52DEDC9
:10095000028B674890ED060AB8EEC00A80ED080ADF
:1009600090ED070AB8EEC00A80ED090A6148407FA1
:100970005F4908705F49897F5E4AD27F01EB02219F
:100980005C4A92F8202001EB02415A4A92F8212059
:1009900001EB026006F0E7FE554AC2E90401554941
:1009A00091F82210534A92F8232001EB0221514A78
:1009B00092F8242001EB02414E4A92F8252001EBE7
:1009C000026006F0D0FE4A4AC2E90201494890F8A6
:1009D0003600484991F8371000EB0120454991F85D
:1009E000381000EB0140434991F8391000EB0160E9
:1009F000114688613F4890F83A003E4991F83B1013
:100A000000EB01203B4991F83C1000EB01403949D3
:100A100091F83D1000EB01601146C86108468069FD
:100A20000A2190FBF1F0114688610846C0690A214D
:100A300090FBF1F01146C86108460078062817DBE4
:100A4000084690F8600098B9012081F860000846D7
:100A500090ED040B80ED100B90ED020B80ED0E0B72
:100A60009FED250A80ED140A9FED230A80ED150AFB
:100A70001F4890F8600088B31D4890ED0E2BB0EE33
:100A8000420AF0EE620A90ED022BB0EE421AF0EE4E
:100A9000621A53EC102B51EC110B07F0C3F841EC28
:100AA000180B06F031FE12498864084690ED102BB1
:100AB000B0EE420AF0EE620A90ED042BB0EE421A5C
:100AC000F0EE621A53EC102B51EC110B07F0AAF860
:100AD00041EC180B06F018FE0549C864044890F86C
:100AE0003000401C024981F83000BDEC028B10BD83
:100AF000E0040020B40500200000000030B50146ED
:100B00000023002408794D7900EB0520124D288040
:100B100028460088642801DD002030BD022206E05E
:100B2000885C1844C3B2E018C4B2501C82B20A48B0
:100B30000088801D8242F3DB07480088801D085C26
:100B4000984207D104480088C01D085CA04201D12A
:100B50000120E2E70020E0E77400002000BFFEE78C
:100B60001CB50121084600F065F84FF48070009034
:100B700001208DF8040000208DF8060003208DF878
:100B8000050001208DF8070069460448FFF767FE5D
:100B90004FF480710148FFF7CDFE1CBD00000240FC
:100BA00000BFFEE77047000070B5002100230F2250
:100BB000C4781CB3174C246804F4E064C4F5E06402
:100BC000C4F30721C1F10404E3B20A4144789C4014
:100BD000E1B28478144021430C07210E0E4C0578B5
:100BE0006155047804F01F050124AC4005786D11AF
:100BF000AD0005F1E025C5F8004109E0047804F0F6
:100C00001F050124AC40054D0678761145F82640B5
:100C100070BD00000CED00E000E400E080E100E0C9
:100C200002490143024A1160704700000000FA05C2
:100C30000CED00E029B1064A12680243044B1A6029
:100C400004E0034A12688243014B1A6070470000B7
:100C50003038024029B1064A12680243044B1A6038
:100C600004E0034A12688243014B1A607047000097
:100C70004038024029B1064A12680243044B1A6008
:100C800004E0034A12688243014B1A607047000077
:100C90002038024029B1064A12680243044B1A6008
:100CA00004E0034A12688243014B1A607047000057
:100CB0004438024029B1064A12680243044B1A60C4
:100CC00004E0034A12688243014B1A607047000037
:100CD00024380240F0B5002100220024022500261D
:100CE0000223324F3F6807F00C0121B1042905D0DF
:100CF000082937D105E02E4F076036E02D4F0760F9
:100D000033E02A4F3F1F3F68C7F38056274F3F1FEE
:100D10003F6807F03F036EB1264FB7FBF3F7DFF8EC
:100D20008CC0ACF1040CDCF800C0CCF3881C07FBD1
:100D30000CF40CE01E4FB7FBF3F7DFF870C0ACF11A
:100D4000040CDCF800C0CCF3881C07FB0CF4174F34
:100D50003F1F3F68C7F301477F1C7D00B4FBF5F7D9
:100D6000076002E0124F076000BF00BF0F4F3F68EF
:100D700007F0F0010909104F7A5C0768D740476017
:100D80000A4F3F6807F4E051890A0B4F7A5C4768C5
:100D9000D7408760054F3F6807F46041490B064F15
:100DA0007A5C4768D740C760F0BD00000838024051
:100DB0000024F40000127A003200002000B587B051
:100DC00001210846FFF736FF01210803FFF762FF04
:100DD000E020059002208DF8180000208DF81A0000
:100DE00003208DF8190001208DF81B0005A92E485D
:100DF000FFF735FD01210420FFF71CFF10200590AF
:100E000001208DF8180005A92848FFF728FD05A93D
:100E10002548FFF724FD0120254908602549C1F830
:100E20009002052211462048FFF761FD05220621A8
:100E30001D48FFF75CFD052207211B48FFF757FD02
:100E400001210803FFF736FF0A2003F06DFD0021A2
:100E50004FF48050FFF72EFF0020ADF800004FF454
:100E60008270ADF802000020ADF80400ADF8060075
:100E7000ADF808004FF40070ADF80A002820ADF876
:100E80000C000020ADF80E000720ADF810006946F8
:100E9000094800F0D9F80121074800F0BBF8FF200D
:100EA00000F00CF807B000BD00000240000802404E
:100EB00090024042000041420030014010B504461B
:100EC00000BF02210A4800F0B1F80028F9D02146FD
:100ED000074800F0B7F800BF0121054800F0A6F868
:100EE0000028F9D0024800F0AAF8C0B210BD0000F6
:100EF0000030014000B587B001210220FFF79AFEC3
:100F000001218803FFF7A6FE4FF460400590022000
:100F10008DF8180000208DF81A0003208DF81900B4
:100F200001208DF81B0005A92948FFF798FC4FF414
:100F30008050059001208DF8180005A92448FFF77E
:100F40008EFC01202349086005220D212048FFF76F
:100F5000CEFC05220E211E48FFF7C9FC05220F21F9
:100F60001B48FFF7C4FC01218803FFF783FE0A201A
:100F700003F0DAFC00214FF48040FFF77BFE0020F5
:100F8000ADF800004FF48270ADF802000020ADF81B
:100F90000400ADF80600ADF808004FF40070ADF89D
:100FA0000A002020ADF80C000020ADF80E0007204C
:100FB000ADF810006946084800F046F801210648DF
:100FC00000F028F8FF2000F009F807B000BD00008D
:100FD00000040240B08240420038004010B5044690
:100FE00000BF02210A4800F021F80028F9D021466C
:100FF000074800F027F800BF0121054800F016F867
:101000000028F9D0024800F01AF8C0B210BD000064
:101010000038004021B1028842F04002028004E022
:1010200002884FF6BF731A400280704702460020C4
:1010300013890B400BB1012000E0002070470146EE
:10104000888970478181704710B50022028802F4B8
:1010500041520B884C8823438C882343CC882343FC
:101060000C8923434C8923438C892343CC89234314
:101070001A430280838B4FF2FF74234083830B8AD1
:10108000038210BD00B587B06846FFF755FC01210B
:101090004804FFF7DFFD01210846FFF7CBFD0722DB
:1010A00003212148FFF723FC0820009002208DF83F
:1010B00004008DF8050001208DF806008DF807006A
:1010C00069461948FFF7CBFB184803900020ADF89C
:1010D00010004FF40050ADF81200C010ADF814002D
:1010E0000020ADF818000420ADF8160003A9104840
:1010F00000F04AFD26208DF8080001208DF8090037
:101100008DF80A008DF80B0002A8FFF74DFD0122B3
:1011100040F22551064800F012FD0121044800F07C
:1011200053FC07B000BD000000000240A086010093
:10113000004400400CB50020019000903448006845
:1011400040F480303249086000BF3148006800F444
:10115000003000900198401C0190009818B9019847
:10116000B0F5A04FF1D12A48006800F4003010B16A
:101170000120009001E0002000900098012846D155
:1011800023484030006840F08050214940310860D9
:101190002048006840F440401E4908601C48083060
:1011A00000681B49083108600846006840F40040A8
:1011B00008600846006840F4A05008601648091FFF
:1011C0000860081F006840F08070091F086000BFB9
:1011D0000F48006800F000700028F9D040F2056068
:1011E0000E4908600A480830006820F003000849EA
:1011F000083108600846006840F00200086000BF3F
:1012000003480830006800F00C000828F8D10CBD35
:10121000003802400070004008544007003C024083
:10122000042808D14FF0E021096941F004014FF092
:10123000E022116107E04FF0E021096921F004018B
:101240004FF0E0221161704710B505F0D5FE01287E
:1012500001D005F0B7FE10BD10B51548006840F488
:101260007000134908601348006840F001001149FC
:10127000086000200F49083108600E4800680E49D8
:1012800008400C4908600D48091D0860081F0068E7
:1012900020F48020091F0860002006490C310860F6
:1012A000FFF748FF4FF0006001498039086010BD2A
:1012B00088ED00E000380240FFFFF6FE1030002409
:1012C00010B501210A4800F0C6F801280AD10949E1
:1012D000086980470021064800F025FA6421044887
:1012E00000F01FFA0121024800F08BF810BD000049
:1012F00000080040B400002010B50121174800F09C
:10130000AAF850B30121154800F07BF8144915489C
:1013100003F0F8F8144B154A1149124803F002F98A
:10132000134B144A1049114803F092FB124804F081
:101330006FFA12480078401C10490870084600787F
:101340000A2805D10C4803F03FFE00200B49087025
:101350000B4A0549054802F08BFA10BD000C00400D
:1013600014000020F00100201F02002003020020D2
:1013700008030020600200204F02002043000020EC
:10138000B00300207FB505460C4601210820FFF779
:1013900061FC681E0290601E80B2ADF8040000205F
:1013A000ADF80C00ADF8060001A90D4800F0BEF93B
:1013B000012211460A4800F05FF832208DF8000043
:1013C00000208DF8010001208DF802008DF8030047
:1013D0006846FFF7E9FB0121014800F015F87FBDE1
:1013E000000C004021B1028842F08002028004E03B
:1013F00002884FF67F731A4002807047CA43028208
:101400007047CA430282704721B1028842F001024C
:10141000028004E002884FF6FE731A400280704793
:1014200031B1B0F8442042F40042A0F8442005E075
:10143000B0F84420C2F30E02A0F8442070470146E1
:10144000486A704702460020138A0B400BB1012006
:1014500000E00020704730B5024600200023002441
:10146000158A05EA0103958905EA010413B10CB157
:10147000012000E0002030BD1AB183890B43838135
:1014800002E083898B4383817047000070B500249C
:1014900000220023058C4FF6FE7635400584028C31
:1014A0008388048B4FF68F752C40B51E2C400D8819
:1014B0002C43751E2A408D892A434D882A43104D9E
:1014C000A84202D00F4DA84213D14FF6F7752A401B
:1014D000CD892A434FF6FB752A408D882A434FF663
:1014E000FF652B404FF6FF552B400D8A2B434D8A4D
:1014F0002B43838004838D684563028470BD0000A4
:1015000000000140000401400A460021018B4FF613
:10151000F7731940114301837047000070B5002430
:1015200000220023058C4FF6EF7635400584028CAF
:101530008388048B48F6FF752C404FF6FF452C40FE
:101540000D884FF6FF7606EA05252C434FF6DF752A
:101550002A408D8906EA05152A434D8806EA0515B5
:101560002A43154DA84202D0144DA8421DD14FF672
:101570007F752A40CD894FF6FF7606EA05152A4386
:101580004FF6BF752A408D8806EA05152A434FF6A7
:10159000FF352B404FF2FF752B400D8A06EA85057B
:1015A0002B434D8A06EA85052B43838004838D688F
:1015B0008563028470BD000000000140000401400A
:1015C0000A460021018B4FF2FF7319404FF6FF735B
:1015D00003EA0223194301837047000070B5002419
:1015E00000220023058C4FF6FF6635400584028CEF
:1015F0008388848B4FF68F752C404FF6FC752C40FA
:101600000D882C434FF6FF552A408D894FF6FF7603
:1016100006EA05252A434D8806EA05252A43154D85
:10162000A84202D0144DA8421DD14FF2FF752A40A6
:10163000CD894FF6FF7606EA05252A434FF6FF359A
:101640002A408D8806EA05252A434EF6FF752B4071
:101650004DF6FF752B400D8A06EA05152B434D8A82
:1016600006EA05152B43838084838D68C563028455
:1016700070BD000000000140000401400A46002146
:10168000818B4FF6F7731940114381837047000037
:1016900070B5002200230024058C4EF6FF763540FD
:1016A0000584038C8488828B48F6FF752A404FF6A8
:1016B000FF452A400D884FF6FF7606EA05252A43A6
:1016C0004DF6FF752B408D8906EA05352B434D8875
:1016D00006EA05352B430A4DA84202D0094DA8421F
:1016E00008D14BF6FF752C400D8A4FF6FF7606EABF
:1016F00085152C43848082838D680564038470BDC6
:1017000000000140000401400A460021818B4FF295
:10171000FF7319404FF6FF7303EA022319438183D5
:101720007047C16270474162704700000022028822
:10173000184B98420ED0184B98420BD0B0F1804F06
:1017400008D0164B984205D0154B984202D0154B45
:10175000984204D14FF68F731A404B881A43124BAC
:10176000984207D0114B984204D04FF6FF431A40DD
:101770000B891A4302804B68C3620B880385054BB3
:10178000984202D0044B984201D18B7A0386012300
:1017900083827047000001400004014000040040C3
:1017A00000080040000C0040001000400014004001
:1017B0007FB504460D4601210420FFF74BFAADF832
:1017C00000500020ADF802000194ADF80800694611
:1017D0000D48FFF7ABFF012211460B48FFF74CFE07
:1017E00001210948FFF710FE1E208DF80C00032090
:1017F0008DF80D008DF80E0001208DF80F0003A864
:10180000FFF7D2F97FBD00000008004010B505F0D9
:1018100013FB40F225511E4800F067F910B31C4835
:1018200000F01CFAC4B21B48008800F40040C8B99C
:101830001848008800F4804060B10A2C03D00020D2
:101840001449088020E01348008840F40040114902
:10185000088019E00D2C06D10E48008840F4804025
:101860000C49088010E00B480088C0F30D000A49BD
:101870000C5408480088401C064908800846008827
:10188000632801DD0020088005F000FB10BD00008A
:1018900000100140300000200404002070B540F228
:1018A00025510F4800F021F9C8B140F225510C48EC
:1018B00000F07BF800250A48001D0088C4B22046CD
:1018C00003F0F6FC0821064800F002F930B10821C7
:1018D000034800F061F8024800F0C0F900BF70BD95
:1018E0000044004010B505F0A7FA2848008800F031
:1018F000080018B12548001D0088C4B240F22551E7
:10190000224800F0F2F801283CD140F225511F484E
:1019100000F04BF81D4800F0A1F9C4B21C48007853
:1019200048B9B52C2ED11B481949097844540120D7
:101930001749087026E01648007801280DD1622C5E
:1019400007D11448124909784454022010490870FC
:1019500018E000200E49087014E00E480C49097880
:1019600044540B480078401C094908700846007828
:10197000642807DB002008700648FFF7BFF808B1AD
:10198000FEF7E4FF05F082FA10BD000000480040B9
:1019900072000020B405002001F40072B2F5007F4F
:1019A00000D100BFCA430280704710B50022002357
:1019B00040F66A14A14200D100BF0A1201249440EB
:1019C000A3B2DC43048010BD21B1828942F40052ED
:1019D000828104E082894DF6FF731A40828170474C
:1019E00010B504463248844208D101211020FFF787
:1019F00061F900211020FFF75DF957E02D4884427E
:101A000009D101214804FFF735F900214FF40030D6
:101A1000FFF730F94AE02848844209D101218804BF
:101A2000FFF728F900214FF48020FFF723F93DE06C
:101A30002248844209D10121C804FFF71BF9002183
:101A40004FF40020FFF716F930E01D48844209D119
:101A500001210805FFF70EF900214FF48010FFF770
:101A600009F923E01748844208D101212020FFF71B
:101A700021F900212020FFF71DF917E012488442C8
:101A800009D101218807FFF7F5F800214FF08040C8
:101A9000FFF7F0F80AE00D48844207D10121400524
:101AA000FFF7E8F800216005FFF7E4F810BD00003B
:101AB000001001400044004000480040004C00403D
:101AC000005000400014014000780040007C0040BD
:101AD00002460020B1F5007F00D100BF13880B4003
:101AE0000BB1012000E00020704770B502460024D1
:101AF00000230025002040F66A16B14200D100BF45
:101B0000C1F3421501F01F03012606FA03F3012D6C
:101B100002D19689334006E0022D02D1168A334065
:101B200001E0968A33400C12012606FA04F4168866
:101B3000344013B10CB1012000E0002070BDF0B5BD
:101B40000346002400260025002040F66A17B9420B
:101B500000D100BF1846C1F3421401F01F0601274F
:101B600007FA06F5012C01D10C3004E0022C01D15A
:101B7000103000E014301AB107682F43076002E00C
:101B80000768AF430760F0BD2DE9FF4705460E46E5
:101B90000024A14600BFA046B08900B100BF2C8A36
:101BA00024F44054F08804432C82AC8941F20C6048
:101BB0008443B08831890843718908430443AC8168
:101BC000AC8A24F44074B0890443AC826846FFF7C1
:101BD00081F82048854202D01F48854202D1DDF8B5
:101BE0000C9001E0DDF80890A88900F4004040B1B5
:101BF00009EBC90000EB091031684900B0FBF1F7AF
:101C000007E009EBC90000EB091031688900B0FB5F
:101C1000F1F76420B7FBF0F004012009642101FB17
:101C20001078A88900F4004040B1322000EBC800D1
:101C3000B0FBF1F000F00700044308E0322000EBB5
:101C400008106421B0FBF1F000F00F0004432C8178
:101C5000BDE8FF870010014000140140014688885C
:101C6000C0F308007047C1F30802828070474FF448
:101C70001651016000218180C18001810C214181C8
:101C800000218181704700BFFEE7000070B5054666
:101C90000E4600BF40210B48FFF71AFF0028F9D07D
:101CA00000240CE0295D0748FFF7DDFF00BF40215D
:101CB0000448FFF70DFF0028F9D0601C84B2B4423D
:101CC000F0D370BD0010014070B505460E4600BF50
:101CD00040210B48FFF7FCFE0028F9D000240CE05F
:101CE000295D0748FFF7BFFF00BF40210448FFF709
:101CF000EFFE0028F9D0601C84B2B442F0D370BD6E
:101D00000048004003B401984100009850EAC12007
:101D100018BF04204A0D18BF40F0010040F2FF72C6
:101D2000B2EB515F08BF40F00200012808BF052058
:101D300002B070474100080218BF04200A0E18BF05
:101D400040F001004FF07F4232EA010108BF40F04D
:101D50000200012808BF05207047000000000000B5
:101D600070B5C1482DED020B2DED0E8B82B0119D8B
:101D700025F000449FEDBEDB9FEDBFEB84423EDBD0
:101D8000A4F140511098A1F17F6108430FD0BC48E5
:101D9000844202DC28D1109830B39DED100B02B0C4
:101DA000BDEC0E8B02B0BDE8704001F04DBC9DED66
:101DB000100B53EC1D2B51EC100B05F027FD9DED86
:101DC000100B41EC180B53EC1E2B51EC100B05F0D3
:101DD0001DFD53EC182B05F083FA41EC100B02B0FB
:101DE000BDEC0E8B02B070BD0120FEF75CFC02B0B2
:101DF000BDEC0E8B02B0BDE8704001F039BCA148CB
:101E00009FEDA18B844256DA9DED100BB4F1795F02
:101E10000ADA51EC100BFFF775FF042808BF01F038
:101E200047FC9DED100BDAE753EC102B51EC100B37
:101E300005F0ECFC41EC190B95480621B0EE490A7F
:101E4000F0EE690A784401F06BFB53EC192B51EC6E
:101E5000100B05F0DBFC41EC1A0B8E48B0EE490A82
:101E6000F0EE690A0421784401F05AFB53EC192B77
:101E700051EC100B05F0CAFC53EC182B05F030FAAE
:101E800041EC100B51EC1A0B53EC102B05F0E4FA5B
:101E9000CDE900019DED000B53EC102B9DED100BD7
:101EA00051EC100B05F0B2FC9DED101B53EC112B07
:101EB00005F016FAD2E09DED100B51EC100B02F07C
:101EC00079FD53EC182B05F0D5FD9FED730BCDE993
:101ED000000153EC102B9DED000B51EC100B05F0A5
:101EE00095FC41EC190B6E480621B0EE490AF0EE64
:101EF000690A784401F014FB53EC192B51EC100BD8
:101F000005F084FC41EC1B0B6648B0EE490AF0EE8C
:101F1000690A0421784401F003FB53EC192B51ECBE
:101F2000100B05F073FC53EC182B05F0D9F941ECBC
:101F30001C0B51EC190B03F09DFD41EC180B5A489A
:101F40009FED5BABA04222DC53EC1C2B51EC1B0B36
:101F500005F082FACDE900019DED000B51EC180B64
:101F600053EC102B05F052FC53EC182B05F0B8F98C
:101F700053EC1A2B05F04AFC53EC1D2B05F052FED6
:101F800053EC1E2B05F076FD41EC100B5FE08DED60
:101F9000008B002000909DED000B51EC180B53ECD2
:101FA000102B05F09DF99DED000B41EC1E0B53EC41
:101FB000102B51EC100B05F029FC53EC192B05F0FC
:101FC00059FD53EC1E2B05F047FA41EC190B53EC6D
:101FD0001C2B51EC1B0B05F03FFA41EC1B0B53EC97
:101FE0001A2B51EC190B05F011FC53EC1D2B05F0CD
:101FF00041FD41EC190B53EC1A2B51EC180B05F079
:1020000005FC53EC1B2B05F001FC53EC192B05F0E0
:1020100009FE9DED000B41EC180B53EC1A2B51EC13
:10202000100B05F0F3FB9FED249B53EC192B05F0EF
:1020300021FD41EC100B51EC180B53EC102B05F06B
:10204000F1FD53EC192B05F015FD41EC100B002DA3
:102050003FF7C5AE51EC100B05F004F941EC100B45
:10206000BDE60000000000000000F03F000000009E
:10207000075C143326A6913C182D4454FB21F93FEC
:102080000000F07F0000E03F000000000000F03F93
:10209000606200006E620000000000000000E03F8F
:1020A000B2610000C06100003333EF3F0000000068
:1020B0000000000000000040182D4454FB21E93FBF
:1020C00070B59B482DED020B2DED068B079D25F07D
:1020D0000044A04218DC9748844202DC0AD10698EA
:1020E00040B19DED060BBDEC068B02B0BDE8704023
:1020F00001F0AABA002DCCBF9FED8F0B9FED900B86
:10210000BDEC068B02B070BD8F48A04215DD8F4834
:10211000A042D8BF4FF0FF3458DD9DED060B51ECC7
:10212000100BFFF7EFFD042808BF01F0C1FA9DED89
:10213000060BBDEC068B02B070BD9DED060B51EC9D
:10214000100B02F037FCCDE9060181489FED828B30
:10215000A0423CDD8248A0421FDD00249FED82ABFF
:102160009DED060B53EC1A2B51EC100B05F0B8F853
:102170009DED060B41EC190B53EC1A2B51EC100B97
:1021800005F044FB53EC182B05F04CFD53EC192BD8
:1021900005F062F9CDE9060149E09DED060B012449
:1021A00053EC182B51EC100B05F09AF89DED060B33
:1021B00041EC190B53EC182B51EC100B05F032FDD0
:1021C00053EC192B05F048F9CDE906012FE06848DA
:1021D000A0421FDD02249FED689B9DED060B53EC92
:1021E000192B51EC100B05F011FB53EC182B05F0DB
:1021F00077F89DED060B41EC180B53EC192B51ECC5
:10220000100B05F00FFD53EC182B05F025F9CDE967
:1022100006010CE09DED060B032453EC102B9FED03
:10222000580B51EC100B05F017F9CDE906019DEDA7
:10223000060B53EC102B51EC100B05F0E7FA41ECB8
:10224000180B53EC182B05F0E1FA41EC190B4E4832
:102250000621B0EE490AF0EE690A784401F060F90F
:1022600053EC182B51EC100B05F0D0FA41EC180B85
:102270004648B0EE490AF0EE690A0521784401F0BB
:102280004FF953EC192B51EC100B05F0BFFA41EC50
:10229000100B51EC180B53EC102B002C0EDA05F040
:1022A0001FF89DED061B53EC112B05F0AFFA9DEDC9
:1022B000061B53EC112B05F0DDFB35E005F010F8A3
:1022C0009DED061B53EC112B05F0A0FA41EC100B11
:1022D0002F48784400EBC40090ED001B51EC100B2C
:1022E00053EC112B05F09EFC9DED061B53EC112BBE
:1022F00005F098FC41EC100B2648784400EBC40034
:1023000090ED001B51EC100B53EC112B05F0B2FBC0
:1023100041EC100B002DA2BFBDEC068B02B070BDCE
:1023200051EC100B04F09EFF41EC100B01E7000094
:10233000000010440000F07F182D4454FB21F93FA9
:10234000182D4454FB21F9BF0000DC3F0000203E63
:102350000000F33F00000000000000000000F03F1C
:102360000000E63F00000000000000000000004008
:102370000080034000000000000000000000F83F63
:10238000000000000000F0BF8A5F0000405F000016
:10239000CA5E0000825E000070B56B4E2DED040B2E
:1023A0002DED028B82B0DDF81CC0DDE905235C4217
:1023B0002CF000411C4341EAD474049D22F00040FB
:1023C000B44205D86C422C4340EAD474B4420BD9D1
:1023D0009DED061B9DED040B02B0BDEC028B04B01D
:1023E000BDE8704001F03AB9ACF14054A4F17F640B
:1023F0001C430BD0022404EAAC7444EAD2740543B3
:102400009FED538B9FED542B07D015E09DED040BF2
:1024100051EC100B01F023FA42E0002C11BF012C0B
:102420009DED040B02B0BDEC028B04BF04B070BD87
:10243000022C38D0032C3BD00B439FED491B9FED62
:102440004A0B0AD0B14218D1B04209D121F08041E3
:1024500020F08040079105900FE0002A15DA10E087
:10246000434B7B44002C08BF93ED000B0DD0012C97
:1024700010D0022C17D0032C1AD0B0421DD1002A44
:1024800003DAB0EE410AF0EE610A02B0BDEC028B55
:1024900004B070BD93ED000B51EC100B04F0E2FEA4
:1024A00041EC100BF1E7B0EE480AF0EE680AECE7F9
:1024B000B0EE420AF0EE620AE7E7401A00153C2847
:1024C000C8BF8DED000B19DCBCF1000FBEBF10F1D1
:1024D0003C0F9FED290B8DED000B0FDB9DED060BE7
:1024E00053EC102B9DED040B51EC100B04F0B4FFDA
:1024F00002F060FA01F0B3F9CDE90001002C08BF49
:102500009DED000BC1D0012C10D0022C9FED1C0BB7
:1025100053EC102B9DED000B51EC100B0DD005F082
:1025200081FB53EC182B05F07DFBB9E7019880F097
:10253000004001909DED000BA7E705F073FB53EC05
:10254000182B05F097FAABE70000F07F00000000C1
:10255000182D4454FB210940182D4454FB2109C077
:10256000182D4454FB21F9BF182D4454FB21F93F89
:10257000B25D00000000000000000000000000004C
:10258000075C143326A6A13C10EE101A08B5444A85
:102590006846B2EB410F28D94FF0E640B0EB410F4F
:1025A00094BF00204FF0FF3000900098002861DBBE
:1025B00060EE000A10F0010F45D010F0020FDFEDC1
:1025C000391A9FED391A00EEE11ADFED381A40EEA4
:1025D000811A21EEA01AF0EE400A40EE010A08BF6F
:1025E000F1EE600AB0EE600A08BD314B21F0004206
:1025F00093423CD911F0004FDFED2E0A20EE201A55
:10260000DFED2D0A19BF31EE601A71EE200A31EEAE
:10261000201A71EE600ABDEEE01A11EE100A9FED6D
:10262000271A00F0030000EEC10A9FED251A009062
:1026300000EEC10A9FED231A00EEC10A9FED221A97
:1026400000EEC10AB1E79FED211A9FED210A10F0BB
:10265000020F00EE810A9FED1F1A00EE801AB7EEFE
:10266000000A00EE810A18BFB1EE400A08BD01F071
:1026700043F89AE710EE100A4000B0F17F4F3CBFDC
:10268000B7EE000A08BD07D14FF00100FEF70BF8C6
:10269000BDE8084001F020B8BDE8084001F018B8D6
:1026A000B61F927E336D4C39DA82083CA0AA2ABE4E
:1026B000490E494683F9223F0000004B0000C93F04
:1026C00000A0FD390020A2331A61342CB93AB2BA05
:1026D000CA9F2A3DDDFFFFBE2DE9F04D2DED040B15
:1026E0002DED0E8B96B0DDE92550279CDDF890A0EE
:1026F00025F0004624F00048BAF1000F14BF012174
:10270000002101EB4502FC4953184A1093422AD399
:10271000002814BF0123002303EB44030B44F749B3
:102720008B4220D358EA00019FEDF59B76D0DFF86D
:10273000D8B35D4503D1BAF1000F05D188E0BAF1F5
:10274000000F08BF002100D0012101EB450111F568
:10275000001F08D8002814BF0121002101EB44010B
:1027600011F5001F0BD99DED261B9DED240B16B016
:10277000BDEC0E8B04B0BDE8F04D00F06FBF00273C
:10278000002DBCBFE149884521DAE1498845A8BF51
:1027900002271CDAC3451ADCDE4901EB2851142953
:1027A00008DDC1F1340220FA02F101FA02F282429C
:1027B0000DD108E058B9C1F1140228FA02F101FA6A
:1027C00002F2424503D101F00101C1F1020756EACC
:1027D0000A0124D1002C22DA002D18BF022F01D0CB
:1027E000012F0AD00220FDF75EFF16B0BDEC0E8B64
:1027F00004B0BDE8F04D00F00FBF0220FDF753FF1D
:1028000000F00AFF51EC100B04F02CFD41EC100B12
:1028100016B0BDEC0E8B04B0BDE8F08D18E09FED56
:10282000BEAB9FEDBF8B002871D1B848804522D147
:1028300005F1804010F5801008BFBAF1000F07D0F5
:10284000B3450ADC002CA8BF9DED260BE0DA0DE0B5
:10285000B0EE490AF0EE690ADAE7002C06DA9DEDDF
:10286000260B51EC100B04F0FDFC6FE0AE487844F1
:1028700090ED000BCCE7D8454DD1002C48DA2EB1B5
:1028800086423AD1BAF1000F42D126E0BAF1000FE8
:1028900013D00220FDF707FF00F0FAFE8DED020BCA
:1028A0009DED240B8DED000B10EE900A039961F362
:1028B0001E0003909DED020BAAE78DED02AB9DED8E
:1028C000240B1AEE901A10EE900A8DED000B61F3B6
:1028D0001E0003909DED020B9AE78DED028B9DED9E
:1028E000240B18EE901A10EE900A8DED000B61F398
:1028F0001E0003909DED020B8AE709DA9DED240B83
:1029000051EC190B53EC102B04F0A6FD1EE020E057
:102910009DED240B7CE786421BDAB4F1804F0DD08D
:10292000A4F10050B0F1FF5013D1002D11DB9DED4B
:10293000240B51EC100B03F09DF807E09DED240BE8
:1029400053EC102B51EC100B00F0C2BC41EC100BFF
:102950005EE79DED240B51EC100B02F02BF8BAF161
:10296000000FCDE90E0142D19FED710B46B3A6F1E8
:10297000E040B0F17F600CD05E4538D1002D00DA28
:10298000A7B3022F0CBF01204FF0FF3004F0EBFE85
:10299000DCE7002D01DD002C0DDA002D01DD002C1F
:1029A0001FDB002D16DA002C14DB012F08BF9FED72
:1029B000620B3FF42DAFB0EE4A0AF0EE6A0A27E749
:1029C000022F18BF002D0CD0012F0AD1002DFFF6C9
:1029D0001FAF06E0002DB8BF002C08DA012F3FF42E
:1029E00017AFB0EE480AF0EE680A11E71BE00120CD
:1029F00000EBE57050EA070115D0791EB0EE498A68
:102A0000F0EE698A084308BF9FED4D8B4E480025C4
:102A1000804570DD4D494E48884514DDB0420DDBE0
:102A2000002C19DB2FE00120FDF73DFE16B0BDECB8
:102A30000E8B04B0BDE8F04D00F01ABEB34502DCC9
:102A4000002C09DC1FE0864202DA002C1BDA03E0CE
:102A50005E452BDD002C16DD0220FDF724FE00F084
:102A600017FE8DED020B53EC1A2B51EC180B04F0F2
:102A7000CDFECDE900010399019861F31E0003909A
:102A80009DED020BC4E60220FDF70DFE00F010FEE6
:102A900010EE901A18EE900A8DED020B8DED008B62
:102AA00061F31E0003909DED020BB1E69DED0E0B50
:102AB00053EC192B51EC100B05F0B4F89FED260BDD
:102AC000CDE9080153EC102B9DED080B51EC100BD8
:102AD00004F09CFE9FED221B53EC112B04F0CAFF67
:102AE0009DED081B53EC112B04F090FE9FED1E1B77
:102AF00053EC112B3CE08CE0FFFF1F00FFFF0F00A9
:102B0000000000000000F03F0000F03F0000F07FF8
:102B10000000404301FCFFFF000000000000F07FC8
:102B20000000000000000000A659000000000000A6
:102B30000000000000000080000000000000F0FF26
:102B4000000000000000F0BF0000E0410000F04382
:102B5000FFFFEF3F00000000000000000000D03F3A
:102B6000555555555555D53F000000000000E03F34
:102B700004F080FF9DED080B41EC1A0B53EC102B79
:102B800051EC100B04F042FE53EC1A2B04F03EFE05
:102B900041EC1A0B9FEDFE0B53EC102B9DED080B37
:102BA00051EC100B04F032FE41EC1B0B9FEDFA0BC5
:102BB00051EC1A0B53EC102B04F028FE41EC1A0BCD
:102BC0009FEDF70B53EC102B9DED080B51EC100B08
:102BD00004F01CFE53EC1A2B05F024F841EC1A0B00
:102BE00051EC1B0B53EC1A2B04F07AFB0690CDE949
:102BF00006519DED060B53EC1B2B51EC100B05F011
:102C000011F853EC1A2B04F035FF41EC100B00F0D7
:102C1000A1B90020B6F5801F0EDA9FEDE30B53EC4F
:102C2000102B9DED0E0B51EC100B04F0EFFDCDE9D8
:102C30000E016FF034000E4600EB2650A0F2FF3775
:102C4000C6F31300DA4940F07F6646F040568842EA
:102C5000D8BF002408DDD7498142C8BF012403DC66
:102C60000024A6F580167F1CD348784400EBC400EE
:102C70000F9690ED00CB9DED0E0B53EC1C2B51EC01
:102C8000100B04F0CFFF9DED0E0B41EC1B0B53EC32
:102C90001C2B51EC100B04F023FB41EC100B51ECFE
:102CA000190B53EC102B04F0D7FB41EC1D0B51EC2E
:102CB0001B0B53EC1D2B04F0A9FD41EC1A0BBF4874
:102CC0008DED10AB7844109590ED000B4FF0005057
:102CD00040EA660000EB84408DED080B00F5002013
:102CE00009909DED080B53EC1C2B51EC100B04F0DC
:102CF00099FF9DED0E1B53EC112B04F0BBFE41EC34
:102D0000100B53EC102B9DED100B51EC100B04F03D
:102D10007DFD9DED080B41EC1C0B53EC102B9DED44
:102D2000100B51EC100B04F071FD53EC1B2B04F055
:102D3000A1FE53EC1C2B04F075FF53EC1D2B04F08B
:102D400065FD41EC1C0B53EC1A2B51EC1A0B04F0F3
:102D50005DFD41EC1B0B9A480621B0EE4B0AF0EEEC
:102D60006B0A784400F0DCFBB0EE401AF0EE601A1B
:102D7000B0EE41DAF0EE61DA53EC1B2B51EC1B0B99
:102D800004F044FD53EC1D2B04F040FD9DED100BB1
:102D900041EC1B0B53EC1A2B51EC100B04F0A0FA76
:102DA00053EC1C2B04F032FD53EC1B2B04F098FA6F
:102DB0009DED100B41EC1B0B53EC102B51EC100B49
:102DC00004F024FD41EC1D0B9FED7FEB53EC1E2B1B
:102DD00004F086FA53EC1B2B04F082FA0890CDE93C
:102DE00008519DED080B53EC1E2B51EC100B04F019
:102DF00019FF53EC1D2B04F015FF53EC1B2B04F0B3
:102E000039FE9DED080B41EC1D0B53EC102B9DED95
:102E1000100B51EC100B04F0F9FC41EC1B0B53ECC4
:102E20001A2B51EC1D0B04F0F1FC9DED080B41EC4D
:102E30001A0B53EC102B51EC1C0B04F0E7FC53EC79
:102E40001A2B04F04DFA41EC1A0B51EC1B0B53EC0E
:102E50001A2B04F045FA0C90CDE90C519DED0C0BAA
:102E600053EC1B2B51EC100B04F0DCFE53EC1A2B33
:102E700004F000FE41EC1B0B9FED550B53EC102BA7
:102E80009DED0C0B51EC100B04F0C0FC41EC1A0B47
:102E90009FED510B51EC1B0B53EC102B04F0B6FCC7
:102EA00041EC1B0B9FED4E0B53EC102B9DED0C0BCF
:102EB00051EC100B04F0AAFC53EC1B2B04F010FA9D
:102EC00041EC100B4848784400EBC40090ED001B27
:102ED00051EC100B53EC112B04F002FA41EC1B0BDC
:102EE000384604F040FCCDE9080153EC1B2B51ECB3
:102EF0001A0B04F0F5F941EC100B3C48784400EB58
:102F0000C40090ED00CB51EC100B53EC1C2B04F0E3
:102F1000E7F99DED081B53EC112B04F0E1F9069045
:102F2000CDE906519DED080B53EC102B9DED060BE2
:102F300051EC100B04F076FE53EC1C2B04F072FEE7
:102F400053EC1A2B04F06EFE53EC1B2B04F092FD95
:102F500041EC100B9DED261B53EC102B8DED001B4F
:102F600000959DED260B51EC100B04F04FFC9DEDF0
:102F7000000B41EC1A0B53EC102B9DED260B51EC82
:102F8000100B04F04FFE9DED061B53EC112B2FE0B0
:102F9000000000604715F73FFE822B654715F73F9D
:102FA00044DF5DF80BAE543E0000000000004043DB
:102FB0008E9803007AB60B008A540000505500002A
:102FC000C2530000000000000000000000000840A4
:102FD000000000E009C7EE3FFD033ADC09C7EE3F01
:102FE000F5015B14E02F3EBE4E5200000852000077
:102FF00004F00CFC53EC1A2B04F072F99DED060B57
:1030000041EC1A0B53EC102B9DED000B51EC100B07
:1030100004F0FCFBCDE90C019DED0C0B51EC1A0BFF
:1030200053EC102B04F05CF9CDE902010C46AA49DF
:103030008C422FDB611A084318D19DED0C0B53EC29
:10304000102B9DED020B51EC100B04F0EBFD41EC4D
:103050001B0B9FEDA30B51EC1A0B53EC102B04F040
:103060003FF953EC1B2B04F0CFFC2DD20220FDF7CF
:103070001AFB00F00DFB10EE901A18EE900A8DED81
:10308000020B8DED008B61F31E0003909DED020B92
:10309000FFF7BEBB944A24F00041914214D39349F8
:1030A000214408437FF4EFAC9DED0C0B53EC102B47
:1030B0009DED020B51EC100B04F0B4FD53EC1A2BF8
:1030C00004F0A2FC7FF6DFAC24F000408849894A76
:1030D000002601EB205182422BDA481C4FF480116C
:1030E00021FA00F02044844AC0F30A517A44A1F244
:1030F000FF3192ED000B814A8DED080BCA4020EAAA
:103100000202C0F3130040F48010C1F1140120FA50
:1031100001F60992002CB8BF76429DED080B53ECE6
:10312000102B9DED0C0B51EC100B04F07BFDCDE949
:103130000C019DED0C0B51EC1A0B53EC102B04F011
:10314000CFF89FED6F0B0890CDE9085153EC102B91
:103150009DED080B51EC100B04F058FB41EC1B0BE0
:103160009FED690B53EC102B9DED080B51EC100BF0
:1031700004F04CFB9DED0C0B41EC1C0B53EC102BA5
:103180009DED080B51EC100B04F04CFD53EC1A2B89
:1031900004F070FC9FED5E1B53EC112B04F036FB2A
:1031A00053EC1C2B04F09CF841EC1A0B51EC1B0B5C
:1031B00053EC1A2B04F094F8CDE902019DED020BBB
:1031C00053EC1B2B51EC100B04F02CFD53EC1A2B81
:1031D00004F050FC9DED020B41EC1A0B53EC102B4C
:1031E00051EC100B04F012FBCDE908014A489DEDAB
:1031F000080B0521784400F093F99DED081B51EC74
:10320000100B53EC112B04F001FB9DED021B53EC52
:10321000112B04F02FFCCDE906019DED020B53ECC0
:103220001A2B51EC100B04F0F1FA53EC1A2B04F0AA
:1032300057F89FED3B0B41EC1A0B53EC102B9DED17
:10324000060B51EC100B04F0EDFC9DED060B41EC70
:103250001B0B53EC102B9DED020B51EC100B04F0EB
:10326000D5FA53EC1B2B04F0F7F853EC1A2B04F0AF
:10327000D9FC9DED021B53EC112B04F0D3FC53EC55
:10328000192B04F0F7FBCDE9020101EB0650011503
:103290000029C8BF039015DC9DED020B324651ECAE
:1032A000100B04F056FEFEF72DFD042808BF00F0B9
:1032B000FFF932469DED020B51EC100B04F049FE74
:1032C000CDE902019DED020B51EC180B53EC102BD4
:1032D00004F09CFAFFF73ABB0000904000000000A9
:1032E000FE822B654715973C00CC904000346F3F21
:1032F00001FCFFFF0000E03F28510000FFFF0F002E
:1033000000000000432EE63F396CA80C615C20BE33
:10331000EF39FAFE422EE63F604F00000000000049
:10332000000000000000004000B52DED048BB0EE61
:10333000409AF0EE609A83B051EC190B04F0A6FBB2
:1033400041EC180B18EE100A18EE901A8DED008B58
:10335000002818BF0120084320F00040C0F17F6022
:1033600000F1E040C00F14D019EE101A19EE900AC7
:103370008DED009B002918BF0121084320F000407B
:10338000C0F17F6000F1E040C00F04BF0120FDF7F5
:103390008AF9B0EE480A03B0F0EE680ABDEC048B7F
:1033A00000BD000000B510EE101A2DED028B81B0AB
:1033B0004D4A6846B2EB410F3CD94FF0E640B0EBC6
:1033C000410F94BF00204FF0FF3000900098B0EE06
:1033D000408A00285FDB28EE080ADFED440A9FEDF3
:1033E000441A00EE201ADFED430A40EE010A9FED79
:1033F000421A00EE201ADFED410A10F0010F40EEF4
:10340000010A9FED3F1A00EE201A61EE000AB0EEAD
:10341000480A08EE200A02BF01B0BDEC028B00BDD5
:10342000BFEE001A01B0C1EE000ABDEC028BB0EE97
:10343000600A00BD334B21F00042934228D911F0BD
:10344000004FDFED310A20EE201ADFED300A19BF00
:1034500031EE601A71EE200A31EE201A71EE600A28
:10346000BDEEE01A11EE100A9FED291A00F00300DC
:1034700000EEC10A9FED271A009000EEC10A9FEDF1
:10348000261A00EEC10A9FED251A00EEC10A9DE73B
:1034900000F032F99AE718EE100A4000B0F17F4FC1
:1034A0000DD218EE100AFEF745FC042808BF00F004
:1034B0001BF9B0EE480A01B0BDEC028B00BD09D18A
:1034C0000120FDF7F0F801B0BDEC028B5DF804EBD4
:1034D00000F002B901B0B0EE480ABDEC028B5DF815
:1034E00004EB00F0F5B80000B61F927EBBE9223C69
:1034F0000C6D063B8A76CE3CACB5593D35A1083EF5
:1035000029AAAA3E490E494683F9223F0000004BF2
:103510000000C93F00A0FD390020A2331A61342CFD
:1035200070B504462DED028B4D1E00EBC500B0EECC
:10353000408AF0EE608A90ED000B35F0060017D05F
:1035400053EC182B51EC100B04F060F941EC100B0C
:103550006D1E04EBC50090ED001B51EC100B53ECFD
:10356000112B03F0BDFE41EC100B35F00600E7D146
:10357000022D36D0042D1CD0062D1CBFBDEC028BB5
:1035800070BD53EC182B51EC100B04F03FF994ED87
:103590000A1B53EC112B03F0A3FE53EC182B04F081
:1035A00035F994ED081B53EC112B03F099FE41EC17
:1035B000100B53EC182B51EC100B04F027F994ED81
:1035C000061B53EC112B03F08BFE53EC182B04F06D
:1035D0001DF994ED040B53EC102B03F081FE41EC2C
:1035E000100B53EC182B51EC100B04F00FF994ED69
:1035F000021B53EC112B03F073FE53EC182B04F059
:1036000005F994ED001B53EC112B03F069FEBDECA2
:10361000028B41EC100B70BD9FED070B10B553EC06
:10362000102B9FED070B51EC100B03F015FF41EC35
:10363000100B10BD000000000000000000000000A2
:10364000000000000000F03F10B553EC102B51ECCF
:10365000100B03F045FE41EC100B10BD10B553EC00
:10366000112B51EC100B03F03BFE41EC100B10BD85
:103670009FED050B10B553EC102B51EC100B03F024
:10368000EBFE41EC100B10BD00000000000000003C
:103690009FED050B10B553EC102B51EC100B04F003
:1036A000B5F841EC100B10BD0000000000000070E8
:1036B0009FED050B10B553EC102B51EC100B04F0E3
:1036C000A5F841EC100B10BD000000000000001038
:1036D00030EE000A70470000DFED020A80EEA00A1B
:1036E00070470000000000009FED020A20EE000A73
:1036F00070470000000000102DE9F0014FF07F42FC
:10370000B2EB410F9FBF4FF0FF310160BDE8F00108
:1037100070474FF0004242EA0123C1F3C752783AA2
:10372000551112F01F0C434CCCF120067C44C1F320
:10373000C752A2F178024FEA621204EB820254F8F7
:10374000254008BFD2E9015612D0556804FA0CF49E
:1037500025FA06F73C43976805FA0CF527FA06F8B0
:10376000D26807FA0CFCF24045EA08054CEA02066A
:10377000A4FB034CA5FB0352A6FB03631D449D421F
:1037800034BF012600261319334416B1934202D9DF
:1037900003E0934201D2012200E00022624402F1E0
:1037A000200C9206DC0C42EA443200EE102A5B0345
:1037B000DFED210AF8EEC01A00EE103A4FEA9C1C29
:1037C00011F0004FB8EE400AC0F800C020EE201AF9
:1037D00000EE105ADFED190AB8EE400A20EE200A7A
:1037E00071EE810A70EE800A10EE902A02F50062F6
:1037F0006FF30B0200EE902A70EEE11A31EEC11A5F
:10380000DFED101A30EE411A9FED0D0A20EE800A0E
:1038100001EE210A9FED0C1A00EE810A04BFBDE8FB
:10382000F0017047CCF180510160BDE8F001B1EECC
:10383000400A7047F04A0000000000360000802C6B
:1038400022AAFD29DB0FC92F0000C92F30380A2812
:1038500001D2012070470020704700BF704710B5AB
:1038600041EC100BFEF72CFC51EC100B10BD0000CE
:1038700007B5AEB0FE4800682590FE480068249069
:10388000FD4800682390FD48006822902E99086941
:103890004969CDE90C012E9908694969CDE90A0108
:1038A0009DED0C0B53EC102B9DED0A0B51EC100B06
:1038B00003F0ACFFCDE910012E998868C968CDE905
:1038C00008012E998868C968CDE906019DED080BAD
:1038D00053EC102B9DED060B51EC100B03F096FFF3
:1038E000CDE90C012E9908684968CDE908012E99A7
:1038F00008684968CDE906019DED080B53EC102BD3
:103900009DED060B51EC100B03F080FFCDE90A0191
:103910009DED0C0B53EC102B9DED0A0B51EC100B95
:1039200003F0DEFCCDE90E019DED100B53EC102BE6
:103930009DED0E0B51EC100B03F0D2FCCDE9120102
:103940009DED120BFFF7F0FC8DED140B9DED140BAC
:1039500053EC102B9FEDCA0B51EC100B03F07CFDC8
:10396000CDE916019DED160B51EC100B03F086FC12
:103970002690269804F040FACDE916012E990868A1
:103980004968CDE914019DED140B53EC102B9DED0E
:10399000160B51EC100B03F039FF2E9A106051609A
:1039A000269804F029FACDE916012E998868C9688D
:1039B000CDE914019DED140B53EC102B9DED160B6E
:1039C00051EC100B03F022FF2E9A9060D1602698E4
:1039D00004F012FACDE916012E9908694969CDE97A
:1039E00014019DED140B53EC102B9DED160B51ECB7
:1039F000100B03F00BFF2E9A10615161A2488069F1
:103A00002C90A148C0692B909F48006A2A902B985F
:103A100004F0F2F9CDE910012E9908694969CDE960
:103A20000E019DED0E0B53EC102B9DED100B51EC88
:103A3000100B03F0EBFECDE914012A9804F0DCF939
:103A4000CDE910012E998868C968CDE90E019DED78
:103A50000E0B53EC102B9DED100B51EC100B03F0E3
:103A6000D5FECDE912019DED140B53EC102B9DED0D
:103A7000120B51EC100B04F0D5F8CDE916019DEDB9
:103A8000160B51EC100B03F0F9FB29902A9804F067
:103A9000B3F9CDE910012E9908684968CDE90E0106
:103AA0009DED0E0B53EC102B9DED100B51EC100BFC
:103AB00003F0ACFECDE914012C9804F09DF9CDE99A
:103AC00010012E9908694969CDE90E019DED0E0B93
:103AD00053EC102B9DED100B51EC100B03F096FEE8
:103AE000CDE912019DED140B53EC102B9DED120B43
:103AF00051EC100B04F096F8CDE916019DED160B74
:103B000051EC100B03F0BAFB28902C9804F074F9D8
:103B1000CDE910012E998868C968CDE90E019DEDA7
:103B20000E0B53EC102B9DED100B51EC100B03F012
:103B30006DFECDE914012B9804F05EF9CDE910017A
:103B40002E9908684968CDE90E019DED0E0B53ECE6
:103B5000102B9DED100B51EC100B03F057FECDE92F
:103B600012019DED140B53EC102B9DED120B51EC3B
:103B7000100B04F057F8CDE916019DED160B51EC32
:103B8000100B03F07BFB27909DED290ADFED3F0A28
:103B900060EE200A3E4890ED000A9FED3E1A00EECE
:103BA000810A80ED000A9DED280ADFED380A60EEFB
:103BB000200A394890ED000A9FED361A00EE810A7E
:103BC00080ED000A9DED270ADFED300A60EE200A45
:103BD000324890ED000A9FED2F1A00EE810A80ED29
:103BE000000A2B48D0ED000A9DED290A30EE800A2C
:103BF000F1EE040A20EE200A8DED150A159804F066
:103C0000FBF8CDE916012F9908684968CDE9140140
:103C10009DED140B53EC102B9DED160B51EC100B7E
:103C200003F05EFB2F9A106051601B48D0ED000A34
:103C30009DED280A30EE800AF1EE040A20EE200AFB
:103C40008DED150A159804F0D7F8CDE916012F99D6
:103C50008868C968CDE914019DED140B53EC102B55
:103C60009DED160B51EC100B03F03AFB2F9A17E069
:103C70004C0000205000002054000020580000207C
:103C8000000000000000F03F80040020CDCCCC3DBF
:103C90005C0000206F12833A600000206400002066
:103CA0009060D160FE48D0ED000A9DED270A30EE0D
:103CB000800AF1EE040A20EE200A8DED150A15980F
:103CC00004F09AF8CDE916012F9908694969CDE900
:103CD00014019DED140B53EC102B9DED160B51ECC4
:103CE000100B03F0FDFA2F9A10615161229804F035
:103CF00083F8CDE908012F9908694969CDE90601E2
:103D00009DED060B53EC102B9DED080B51EC100BA9
:103D100003F07CFDCDE90C01239804F06DF8CDE9AA
:103D200004012F998868C968CDE902019DED020B55
:103D300053EC102B9DED040B51EC100B03F066FDC2
:103D4000CDE90801249804F057F8CDE904012F9932
:103D500008684968CDE900019DED000B51EC100B9E
:103D600003F080FACDE902019DED040B53EC102B1A
:103D70009DED020B51EC100B03F048FDCDE906015F
:103D80009DED080B53EC102B9DED060B51EC100B29
:103D900003F048FFCDE90A019DED0C0B53EC102B0D
:103DA0009DED0A0B51EC100B03F03CFF9FEDBD0B9A
:103DB00053EC102BCDE90E019DED0E0B51EC100BC9
:103DC00003F024FD9FEDB90B53EC102BCDE910014E
:103DD0009DED100B51EC100B03F03EFBCDE91401EF
:103DE000259804F009F8CDE912019DED140B53EC70
:103DF000102B9DED120B51EC100B03F071FACDE975
:103E000016019DED160B51EC100B03F037FAA94982
:103E10000860239803F0F0FFCDE908012F990869A5
:103E20004969CDE906019DED060B53EC102B9DED84
:103E3000080B51EC100B03F0E9FCCDE90C012298C2
:103E400003F0DAFFCDE904012F998868C968CDE94C
:103E500002019DED020B53EC102B9DED040B51EC78
:103E6000100B03F0D3FCCDE90801259803F0C4FF43
:103E7000CDE904012F9908684968CDE902019DED5B
:103E8000020B53EC102B9DED040B51EC100B03F0C7
:103E9000BDFCCDE906019DED080B53EC102B9DED0B
:103EA000060B51EC100B03F0BDFECDE90A019DEDB0
:103EB0000C0B53EC102B9DED0A0B51EC100B03F087
:103EC0000FFA9FED780B53EC102BCDE90E019DED11
:103ED0000E0B51EC100B03F099FC9FED740B53EC9F
:103EE000102BCDE910019DED100B51EC100B03F0E0
:103EF000B3FACDE91401249803F07EFFCDE9120155
:103F00009DED140B53EC102B9DED120B51EC100B8F
:103F100003F0E6F9CDE916019DED160B51EC100BFF
:103F200003F0ACF964490860249803F065FFCDE91B
:103F300008012F9908694969CDE906019DED060B35
:103F400053EC102B9DED080B51EC100B03F05EFCB5
:103F5000CDE90C01259803F04FFFCDE904012F991D
:103F60008868C968CDE902019DED020B53EC102B66
:103F70009DED040B51EC100B03F048FCCDE908015A
:103F8000229803F039FFCDE904012F9908684968A8
:103F9000CDE902019DED020B53EC102B9DED040BBE
:103FA00051EC100B03F032FCCDE906019DED080B3E
:103FB00053EC102B9DED060B51EC100B03F090F918
:103FC000CDE90A019DED0C0B53EC102B9DED0A0B76
:103FD00051EC100B03F026FE9FED320B53EC102B2F
:103FE000CDE90E019DED0E0B51EC100B03F00EFC14
:103FF0009FED2E0B53EC102BCDE910019DED100B16
:1040000051EC100B03F028FACDE91401239803F0CA
:10401000F3FECDE912019DED140B53EC102B9DED39
:10402000120B51EC100B03F05BF9CDE916019DED7D
:10403000160B51EC100B03F021F92049086025986C
:1040400003F0DAFECDE908012F9908694969CDE945
:1040500006019DED060B53EC102B9DED080B51EC6A
:10406000100B03F0D3FBCDE90C01249803F0C4FE40
:10407000CDE904012F998868C968CDE902019DED59
:10408000020B53EC102B9DED040B51EC100B03F0C5
:10409000BDFBCDE90801239803F0AEFE10E000005F
:1040A00064000020000000E04D62503F000000006E
:1040B000000000404C000020500000205400002070
:1040C000CDE904012F9908684968CDE900019DED0B
:1040D000000B51EC100B03F0C5F8CDE902019DED8A
:1040E000040B53EC102B9DED020B51EC100B03F065
:1040F0008DFBCDE906019DED080B53EC102B9DEDDA
:10410000060B51EC100B03F0EBF8CDE90A019DED25
:104110000C0B53EC102B9DED0A0B51EC100B03F024
:10412000DFF81FED200B53EC102BCDE90E019DEDB8
:104130000E0B51EC100B03F069FB1FED240B53EC3D
:10414000102BCDE910019DED100B51EC100B03F07D
:1041500083F9CDE91401229803F04EFECDE9120156
:104160009DED140B53EC102B9DED120B51EC100B2D
:1041700003F0B6F8CDE916019DED160B51EC100BCE
:1041800003F07CF8D6490860D64890ED000A20EE8E
:10419000000AD548D0ED000A90ED001A00EE810A21
:1041A000D248D0ED000A90ED001A00EE810A0846D0
:1041B000D0ED000A90ED001A00EE810A8DED110A93
:1041C000119803F019FECDE912019DED120BFFF7D6
:1041D000ABF88DED140B9DED140B53EC102B9FEDF4
:1041E000C40B51EC100B03F037F9CDE916019DED2E
:1041F000160B51EC100B03F041F82690B948D0EDA6
:10420000000A9DED260A20EE800A80ED000AB648DD
:10421000D0ED000A9DED260A20EE800A80ED000A0E
:10422000B248D0ED000A9DED260A20EE800A80ED0E
:10423000000AAB48D0ED000A9DED260A20EE800A68
:1042400080ED000AA74890ED000A20EE000A8DEDEF
:10425000210A90ED000AA448D0ED000A20EE200AC1
:104260008DED200A9F4890ED000AA048D0ED000A8D
:1042700020EE200A8DED1F0A9A4890ED000A98481A
:10428000D0ED000A20EE200A8DED1E0A964890ED32
:10429000000A20EE000A8DED1D0A90ED000A9348F9
:1042A000D0ED000A20EE200A8DED1C0A8E4890ED1C
:1042B000000A8B48D0ED000A20EE200A8DED1B0A83
:1042C0008A4890ED000A20EE000A8DED1A0A90ED62
:1042D000000A8348D0ED000A20EE200A8DED190A6D
:1042E00090ED000A20EE000A8DED180A9DED1A0AE5
:1042F000F0EE000A60EE200A9DED180AB0EE001AFA
:1043000041EE000AB7EE000A30EE600A7A4880ED0E
:10431000000A9DED1C0AF0EE000A60EE200A9DEDF9
:104320001E0AB0EE001A41EE400AC0ED010A9DEDF2
:104330001B0AF0EE000A60EE200A9DED1F0AB0EEA7
:10434000001A41EE000AC0ED020A9DED1C0AF0EED3
:10435000000A60EE200A9DED1E0AB0EE001A41EE42
:10436000000AC0ED030A9DED1D0AF0EE000A60EEA2
:10437000200A9DED180AB0EE001A41EE000AB7EED1
:10438000000A30EE600A80ED040A9DED190AF0EE95
:10439000000A60EE200A9DED200AB0EE001A41EE00
:1043A000400AC0ED050A9DED1B0AF0EE000A60EE22
:1043B000200A9DED1F0AB0EE001A41EE400AC0ED42
:1043C000060A9DED190AF0EE000A60EE200A9DED46
:1043D000200AB0EE001A41EE000AC0ED070A9DED7A
:1043E0001D0AF0EE000A60EE200A9DED1A0AB0EEFA
:1043F000001A41EE000AB7EE000A30EE600A80EDC6
:10440000080A8069119003F0F7FCCDE912019DEDD7
:10441000120BFDF7A5FC8DED140B9DED140B51EC6B
:10442000100B02F01FFF9FED350B53EC102BCDE965
:1044300016019DED160B51EC100B03F0E7F90A463F
:104440000146309806C02C48006A119003F0D4FC55
:10445000CDE914012848C069119003F0CDFCCDE9E5
:1044600012019DED141B9DED120BFDF795FF8DEDD7
:10447000160B9FED220B53EC102B9DED160B51EC00
:10448000100B03F0C3F90A4601463098C0E9021246
:1044900019480068119003F0AFFCCDE914011648EB
:1044A000C068119003F0A8FCCDE912019DED141B2A
:1044B0009DED120BFDF770FF8DED160B9FED0F0BB1
:1044C00053EC102B9DED160B51EC100B03F09EF9E5
:1044D0000A4601463098C0E9041231B000BD000020
:1044E000580000204C000020500000205400002004
:1044F000000000000000F03F8004002000000020C9
:10450000DCA54C4070B504460D460123132221461C
:10451000122000F079F9002306222946022000F03B
:1045200073F970BD2DE9F0412DED068B04460F4661
:1045300015461E469FED741B9FED750BFEF7CCF8DC
:10454000B0EE409AF0EE609AB4F9030000EE100A63
:10455000B8EEC00AB1EE400ADFED6F0A20EE200A85
:10456000DFED6E0A80EE201A11EE108A404603F04D
:1045700043FC41EC1A0B53EC192B03F047F941ECC7
:10458000180B9FED670B53EC102B03F03FF92860DD
:1045900069609FED5D1B9FED5E0BFEF79DF8B0EE31
:1045A000409AF0EE609AB4F9010000EE100AB8EEFD
:1045B000C00ADFED590A20EE200ADFED580A80EE2E
:1045C000201A11EE108A404603F016FC41EC1A0B3B
:1045D00053EC192B03F01AF941EC180B9FED500B1B
:1045E00053EC102B03F012F9A860E9609FED461B15
:1045F0009FED470BFEF770F8B0EE409AF0EE609A30
:10460000B4F9050000EE100AB8EEC00ADFED420A68
:1046100020EE200ADFED410A80EE201A11EE108A0A
:10462000404603F0E9FB41EC1A0B53EC192B03F065
:10463000EDF841EC180B9FED3A0B53EC102B03F007
:10464000E5F82861696114F8110F01022088C0F3B0
:10465000072041EA6010208034F81109401100EE73
:10466000100AB8EEC00AB2EE001AC0EE010AB3EEAC
:10467000070A30EE800A10EE100AA861B7F90200AE
:1046800000EE100AB8EEC00AB1EE400ADFED260ACD
:1046900020EE200ADFED250A80EE201A11EE108AA6
:1046A000404603F0A9FBB061F161B7F9000000EEEC
:1046B000100AB8EEC00ADFED1C0A20EE200ADFED7A
:1046C0001B0A80EE201A11EE108A404603F094FB7C
:1046D00030627162B7F9040000EE100AB8EEC00A49
:1046E000DFED110A20EE200ADFED100A80EE201A1D
:1046F00011EE108A404603F07FFBB062F162BDEC20
:10470000068BBDE8F08100000000000000001040B2
:10471000000000000000004000007A440000004754
:10472000000000000000F83F0000FA44004CFF4683
:1047300010B5012000F0F8F80121002000F08EF8FB
:104740004FF47A7000F012F90121002000F086F891
:1047500004461E2C01D0012010BD642000F006F993
:10476000022000F0E1F80121002000F077F8642039
:1047700000F0FCF8012200217C2000F093F80520D5
:1047800000F0D2F8012204217D2000F08BF83220C5
:1047900000F0CAF801228B21402000F083F8C820E5
:1047A00000F0E4F801220321412000F07BF86420AE
:1047B00000F0BAF80021084600F050F804460F2C2B
:1047C00001D00120C8E70A2000F0D0F81E2000F038
:1047D000ABF800221146112000F064F81E2000F012
:1047E000A3F8002211460F2000F05CF80A2000F028
:1047F000BDF800220121102000F054F80A2000F03A
:10480000B5F80020A8E700002DE9F04106460F4664
:1048100090461C4646F080061CB100200D490860F9
:1048200002E000200C4908603046FCF747FB0025F9
:1048300004E0FF20FCF742FB78556D1C4545F8DB92
:104840001CB101200349086002E001200249086010
:10485000BDE8F081900240429002414270B50546A9
:104860000C46002645F080051CB100200B4908606D
:1048700002E000200A4908602846FCF71FFBFF20E1
:10488000FCF71CFB06461CB101200449086002E04D
:10489000012003490860304670BD0000900240428C
:1048A0009002414270B506460D4614461CB10020E8
:1048B0000A49086002E00020094908603046FCF718
:1048C000FDFA2846FCF7FAFA1CB1012003490860FA
:1048D00002E0012002490860384670BD9002404263
:1048E0009002414270B504460420FCF799FC0C4844
:1048F000047025464FF47A70454301200949088029
:104900004FF0E020006940F002004FF0E021086124
:1049100008464561006940F00100086170BD000073
:10492000280000202A00002070B5044602F064FB35
:10493000012811D00C480088844206DB0A48008810
:1049400094FBF0F5284602F0BFFA0748008894FB74
:10495000F0F100FB114084B24FF47A7104FB01F0D6
:1049600000F004F870BD00002A00002070B5034676
:1049700000224FF0E02675690D4E367803FB06F4F1
:104980004FF0E026B16910E04FF0E026B0698842B0
:104990000BD0884202D20E1A324402E02E1A0E4484
:1049A00032440146A24200D300E0EDE700BF70BDF3
:1049B0002800002082B0CDE9000121F000400190E4
:1049C0009DED000B02B051EC100B704700BF054A83
:1049D000128802F04002002AF9D0C2B2014B9A803C
:1049E000704700000010014010B5C820FFF79CFF81
:1049F0001C210548FDF768F909210448FDF764F911
:104A00001420FFF791FF10BDDE7F000864800008CE
:104A100010B56420FFF788FF5A210A48FDF754F9C2
:104A20001420FFF781FF0E210748FDF74DF91420F0
:104A3000FFF77AFF09210548FDF746F91420FFF733
:104A400073FF10BDFA7F00085480000864800008DE
:104A50002DE9F0412DED028B05460C4616461F460A
:104A60002868696841EC100B304600F0A5F851EC5D
:104A7000100B28606960A868E96841EC100B06F12A
:104A8000380000F099F851EC100BA860E960286933
:104A9000696941EC100B06F1700000F08DF851ECE3
:104AA000100B28616961A069E16941EC100B38467F
:104AB00000F082F851EC100BA061E161206A616A9C
:104AC00041EC100B07F1380000F076F851EC100BB8
:104AD00020626162A06AE16A41EC100B07F170008C
:104AE00000F06AF851EC100BA062E162A069E16984
:104AF0009FED181B53EC112B02F088FE9FED170B56
:104B000053EC102B02F0A8FC20606160206A616AFF
:104B10009FED101B53EC112B02F078FE9FED0F0B55
:104B200053EC102B02F098FCA060E160A06AE16AEF
:104B30009FED081B53EC112B02F068FE9FED070B55
:104B400053EC102B02F088FC20616161BDEC028BFC
:104B5000BDE8F08100000040FB210940000000009A
:104B60000080664070B505460E46002414E0C4EB94
:104B7000C40105EBC1009FED0A1B9FED0B0B00F07C
:104B8000B9F8C4EBC40106EBC1009FED091B9FED12
:104B9000060B00F0AFF8641C032CE8DB70BD0000CE
:104BA0000000000000003E400000000000408F4078
:104BB0000000000000C0724010B52DED0E8B82B0D9
:104BC0000446B0EE408AF0EE608A94ED022BB0EE1F
:104BD000420AF0EE620A94ED0C2BB0EE421AF0EEAF
:104BE000621A53EC102B51EC110B02F00FFE41EC4A
:104BF0001B0B94ED002BB0EE420AF0EE620A94ED2E
:104C00000A2BB0EE421AF0EE621A53EC102B51EC64
:104C1000110B02F0FBFD41EC1D0B53EC182B02F0C5
:104C200029FF41EC1C0B53EC1B2B02F0FBFF41EC6A
:104C3000190B8DED009B0198C0F30A5040F2FF71F3
:104C4000884201D0012000E0002018B9B0EE489A57
:104C5000F0EE689A94ED082BB0EE420AF0EE620A8C
:104C600094ED0C2BB0EE421AF0EE621A53EC102BBE
:104C700051EC110B02F0CAFD41EC1B0B94ED062B1D
:104C8000B0EE420AF0EE620A94ED0A2BB0EE421A40
:104C9000F0EE621A53EC102B51EC110B02F0B6FD42
:104CA00041EC1D0B94ED041BB0EE410AF0EE610ADD
:104CB00053EC102B51EC190B02F0A8FD41EC1E0B2C
:104CC00053EC1D2B02F00CFB41EC1C0B53EC1B2B8B
:104CD00002F006FB41EC1A0B94ED0A0B84ED0C0B71
:104CE00084ED0A9BB0EE4A0AF0EE6A0A02B0BDEC0F
:104CF0000E8B10BD10B52DED048B0446B0EE409A1E
:104D0000F0EE609AB0EE418AF0EE618A44B19FED18
:104D10000C0B53EC102B51EC180B02F03BFD02D89E
:104D2000BDEC048B10BDB0EE481AF0EE681AB0EE80
:104D3000490AF0EE690A204600F006F800BFEFE7E6
:104D4000000000000000000030B52DED108B85B094
:104D50000446B0EE40AAF0EE60AAB0EE41BAF0EE22
:104D600061BA53EC1B2B51EC1A0B02F075FBCDE929
:104D700002019DED020B53EC102B9FED610B51ECEA
:104D8000100B02F069FB41EC1D0B02F077FA0CEE00
:104D9000100AB0EE4C0AFEF705FB10EE105A28463A
:104DA00003F02AF841EC180B53EC182B51EC180BBC
:104DB00002F02CFD41EC1C0B9FED530AFDF7E4FBC8
:104DC000F0EE000A20EE200A10EE105A284603F0FA
:104DD00013F841EC1F0B53EC182B02F017FD41ECBC
:104DE0001E0B9FED4A0B53EC102B02F079FA41ECAD
:104DF0001D0B53EC1C2B02F073FA41EC190B53EC16
:104E0000182B51EC180B02F001FD41EC1C0B53EC7C
:104E1000192B02F021FBC4E9040194ED041BB0EE50
:104E2000410AF0EE610A53EC102B9FED3A1B51EC56
:104E3000110B02F0EBFCC4E9060194ED040B84EDC8
:104E4000080B53EC182B51EC180B02F0DFFC41EC73
:104E50001E0B9FED2E0B53EC102B02F0E3FE41ECEA
:104E60001D0B9FED2C0B53EC102B02F0CFFC41ECF3
:104E70001C0B53EC192B02F0EFFAC4E9000153ECC0
:104E8000182B51EC180B02F0C1FC41EC1D0B9FEDEF
:104E90001E0AFDF779FBF0EE000A20EE200A10EE64
:104EA000105A284602F0A8FF41EC1F0B53EC182BB8
:104EB00002F0ACFC9FED150B53EC102BCDE900017B
:104EC0009DED000B51EC100B02F0D4FD41EC1E0BDC
:104ED00053EC1D2B02F004FA41EC1C0B53EC192B84
:104EE00002F0BAFAC4E902019FED0C0B84ED0A0B43
:104EF0009FED0A0B84ED0C0B05B0BDEC108B30BDA3
:104F000000000040FB210940DA0F493F000000008B
:104F10000000F03F00000000000000400000000022
:104F2000000000004FF44070FBF77AFEA820FFF766
:104F3000D9FC4FF4E13000F06FFE00F0D3FDFCF738
:104F4000A1F8FBF70DFEFBF739FFFBF7D3FFFFF7E7
:104F5000EFFB00F01DFD16491648FFF703FE542134
:104F60004FF47A70FCF70EFA00F014F9032012499E
:104F70000870FC20487088720320C8720F4800F047
:104F800085FA4FF4FA60FFF7CFFC4FF496700B49A7
:104F9000088048808880C88008E00948018809A006
:104FA000FBF7F0F94FF49670FFF7BEFCF5E7000051
:104FB0000803002060020020D2030020200000200F
:104FC000A40400202564090070B586B004460025BD
:104FD0000026AA208DF80400FF208DF8050002208D
:104FE0008DF806000E208DF8070000208DF80800CF
:104FF0008DF809008DF80A008DF80B008DF80C0073
:105000008DF80D00A06800EE100ABCEEC00A10EE8C
:10501000100AC0B28DF80E00A06800EE100ABCEEB7
:10502000C00A10EE100A000A8DF80F00A06800EE0A
:10503000100ABCEEC00A10EE100A000C8DF8100029
:10504000A06800EE100ABCEEC00A10EE100A000EB6
:105050008DF81100606800EE100AF2EE040A20EEEE
:10506000200ABDEEC00A10EE100AC0B28DF8120080
:10507000606800EE100AF2EE040A20EE200ABDEE8F
:10508000C00A10EE100A000A8DF8130001208DF8F6
:1050900014008DF81500002007E001A9095C2944DF
:1050A000CDB27119CEB2411CC8B29DF80710091DCE
:1050B0008142F2DC8DF816508DF81760142101A89A
:1050C000FCF7E4FD06B070BD2DE9F04105460E4643
:1050D0001C4807681C480068001D01F073FE50B9A9
:1050E0001948006890F82C10012088401749096879
:1050F000814316480160681C38B936B1124801680E
:10510000091D134801F08CFE1AE07C190E48006856
:105110004460BC4207D20C480168091D0D48006874
:1051200001F064FE0CE008480168091D0A480068A7
:1051300001F05CFE09480068844201D2074804601F
:10514000BDE8F081BC010020A8010020C0010020C2
:10515000CC060020B0010020AC010020D8010020C6
:105160000A490968096809B9012100E0002121B153
:105170004FF0FF31064A116006E004490968C9682A
:10518000C868034A4168116070470000AC01002004
:10519000D801002010B58AB001210420FBF75AFD88
:1051A00001210220FBF746FD4FF4707000900220B1
:1051B0008DF8040003208DF8050000208DF806000E
:1051C00001208DF8070069463348FBF748FB0222AF
:1051D00006213148FBF78BFB022207212E48FBF703
:1051E00086FB022208212C48FBF781FB02220921C1
:1051F0002948FBF77CFB2948006840082849B0FB98
:10520000F1F0401E84B242F20F700890ADF81C40DD
:105210000020ADF82400ADF81E0007A92148FCF7D6
:1052200085FA6020ADF808000020ADF814000120D8
:10523000ADF80A004FF47A60049008211948FCF791
:1052400063F902A91748FCF721F908211548FCF772
:10525000B7F902A91348FCF761F908211148FCF7D6
:105260000DFA02A90F48FCF7B9F902A90D48FCF79D
:105270000FFA08210B48FCF747FA01210948FCF70F
:10528000CFF801210748FCF7ADF801210548FCF7EC
:10529000BBF80AB010BD000000040240000000206E
:1052A00000093D0000080040014608687047000002
:1052B00071490A780978491C6F4B19706F498854F5
:1052C0001946097819297DD16C4909780F29FAD135
:1052D0006A49097E79B16949097E04290BD0674979
:1052E000097E142907D06549097E242903D0634922
:1052F000097E3429E7D16249096809B9012100E032
:1053000000215F4A116000215B4A11705B494978B6
:105310005A4A927802F0070241EA0221594A118062
:105320005649C9788906490D544A927841EAE20102
:10533000544A518051494979C907490D4F4A127958
:1053400041EA82014D4AD27841EAA2114D4A918048
:105350004A4989790907490D484A527941EA620167
:10536000484AD1804549C9794906490D434A92794D
:1053700041EA2211434A11814049497A8907490D7E
:105380003E4A127A41EA42013C4AD27941EAE211AC
:105390003C4A51813949897AC906490D374A527ABE
:1053A00041EAA201374A91813449C97AC900334A96
:1053B000927A41EA6211334AD1813049097B2F4AFE
:1053C000527B00E056E002F0070241EA02212D4A3A
:1053D00011822A49897B8906490D284A527B41EA74
:1053E000E201284A51822549097CC907490D234A0F
:1053F000D27B41EA8201214A927B41EAA211214AF1
:1054000091821E49497C0907490D1C4A127C41EAD8
:1054100062011C4AD1821949897C4906490D174A03
:10542000527C41EA2211174A11831449097D8907E8
:10543000490D124AD27C41EA4201104A927C41EA6B
:10544000E211104A51830D49497DC906490D0B4AA5
:10545000127D41EAA2010B4A91830849897DC90066
:10546000064A527D41EA6211064AD1830349C97D49
:10547000054A11707047000069000020C404002034
:10548000A0024042A40400206800002001880029F6
:1054900001DC002107E00188B1F57A7F02DD4FF4DD
:1054A0007A7100E0018801804188002901DC002137
:1054B00007E04188B1F57A7F02DD4FF47A7100E0B0
:1054C000418841808188002901DC002107E0818832
:1054D000B1F57A7F02DD4FF47A7100E08188818036
:1054E000C188002901DC002107E0C188B1F57A7F7D
:1054F00002DD4FF47A7100E0C188C1800188890023
:1055000001F57A610A4A11604188890001F57A61E2
:10551000121D11608188890001F57A61121D1160E8
:10552000C188890001F57A61121D11607047000081
:10553000340800402DE9F04106460F461546002488
:10554000A046102F19D008DC012F23D0022F0BD03A
:10555000042F0CD0082F1CD10CE0202F10D0402F8E
:1055600011D0802F15D111E044F0100413E044F065
:10557000200410E044F030040DE044F040040AE060
:1055800044F0500407E044F0600404E044F0700488
:1055900001E000BF00BF00BF102D1FD008DC012DAF
:1055A00031D0022D0BD0042D0ED0082D2AD110E0C1
:1055B000202D18D0402D1BD0802D23D11DE044F08C
:1055C00001044FF4C01821E044F002044FF46018C5
:1055D0001CE044F003044FF4F00817E04FF478386F
:1055E00044F0040412E04FF4FC2844F005040DE0FC
:1055F0004FF47E2844F0060408E04FF4FF1844F00E
:10560000070403E000BF4FF4002800BF00BF8EB9BD
:105610001448C0F800802146062000F015FA082D35
:1056200008DD092000F0F8F9044644F004010920DF
:1056300000F00AFA012E12D10B48C0F8008044F0A5
:105640008001072000F000FA082D08DD092000F095
:10565000E3F9044644F00801092000F0F5F9BDE83B
:10566000F0810000440000204800002010B586B002
:105670000446122201A9102000F0B0F99DF80400A0
:1056800000019DF8051040EA21102080208800F4D8
:10569000006020B1B4F9000040F4704001E0B4F9BA
:1056A000000000B220809DF806009DF8051001F072
:1056B0000F0140EA01206080608800F4006020B1A2
:1056C000B4F9020040F4704001E0B4F9020000B205
:1056D00060809DF8070000039DF8081040EA011063
:1056E0009DF8091040EA21106060606800F4002015
:1056F00018B160682249084300E0606860609DF866
:1057000009000007000B9DF80A1040EA01209DF8EF
:105710000B100843A060A06800F4002018B1A06836
:105720001749084300E0A068A0609DF80D009DF8AF
:105730000C1040EA012000B2A0819DF80F009DF8F6
:105740000D1040EA012000B2E0819DF811009DF8A3
:10575000101040EA012000B220829DF813009DF84D
:10576000121040EA012000B260829DF815009DF8F9
:10577000141040EA012000B2A08206B010BD000063
:105780000000F0FF10B5044606222146002000F07C
:1057900025F9206820F07F4000BA010AD4F80500FE
:1057A00061F31F20C4F80500D4F805004FF4000190
:1057B00001EA102030B1D4F805004FF07F4141EAF2
:1057C000102002E0D4F80500000AD4F8051060F3B8
:1057D0001F21C4F80510D4F80200000A00BA010A1B
:1057E000A06861F31F20A060A0684FF4000101EAE7
:1057F000102028B1A0684FF07F4141EA102001E05D
:10580000A068000AA16860F31F21A16010BD00001C
:1058100010B52DED068B84B0044601A8FFF7B2FF4A
:105820000398000A00EE100AF8EE400A504890ED86
:10583000000AB8EE400A80EE801AF0EE418ADDF8E8
:105840000900000A00EE100AF8EE400A494890EDFF
:10585000000AB8EE400A80EE801AB0EE418A46484F
:10586000B0F9100000EE100AB8EEC00A4248B0F9D4
:10587000140000EE900AF8EEE00A08EE200A3E4816
:10588000806800EE900AF8EEE00A48EE000AF0EEBA
:10589000609A3948B0F90E0000EE100AB8EEC00A5E
:1058A0003548B0F9120000EE900AF8EEE00A08EE72
:1058B000200A68EE880A20EE200AB0EE40AA2E48A0
:1058C000406800EE100AB8EEC00A08EE290A2A481D
:1058D000B0F90C0000EE900AF8EEE00A08EEA00A1B
:1058E00030EE0A0A10EE100A20602348B0F90000DA
:1058F00000EE100AB8EEC00AF6EE000A20EE200A0A
:105900001D48B0F9020000EE900AF8EEE00A00EE41
:10591000A80A10EE100A6060206800EE100ADFEDA1
:10592000170A30EEC00ADFED160A80EE201AB0EE3C
:10593000419A9FED140A29EE000A20EE090A20EE92
:10594000090A206800EE900A9FED0C1A71EE600AB9
:105950009FED0D1A60EE810A9FED0C1A00EE810A90
:1059600010EE100AA06004B0BDEC068B10BD000064
:10597000480000204400002068040020000CC647B6
:1059800000007A4485EB513FEC51B83D0000C8421D
:1059900010B509210C2000F057F86420FEF7C4FF71
:1059A000102280210020FFF7C5FD0120FEF7BCFF7B
:1059B000082211460120FFF7BDFD0120FEF7B4FFCC
:1059C0000721082000F040F80A20FEF7CFFF024828
:1059D000FFF74CFE10BD0000680400202DE9F041E7
:1059E00005460E46174645F0800500200949086027
:1059F0002846FBF7F3FA002404E0FF20FBF7EEFA59
:105A00003055641CBC42F8DB012002490860BDE847
:105A1000F0810000B082404270B5044600250020AD
:105A20000749086044F08000FBF7D8FAFF20FBF735
:105A3000D5FA054601200349C1F8B002284670BDD9
:105A4000B08240420080404270B505460C460020BE
:105A5000064908602846FBF7C1FA2046FBF7BEFA64
:105A600001200349C1F8B00270BD0000B08240427D
:105A70000080404200B52DED048B83B041EC190B42
:105A800002F004F841EC180B18EE100A18EE901A08
:105A90008DED008B002818BF0120084320F0004046
:105AA000C0F17F6000F1E040C00F14D019EE101A71
:105AB00019EE900A8DED009B002918BF01210843C3
:105AC00020F00040C0F17F6000F1E040C00F04BF53
:105AD0000120FAF7E8FD51EC180B03B0BDEC048B84
